{
  "_format": "hh-sol-artifact-1",
  "contractName": "NFTPlatform",
  "sourceName": "contracts/NFTPlatform.sol",
  "abi": [
    {
      "inputs": [
        {
          "internalType": "address",
          "name": "acceptedToken",
          "type": "address"
        }
      ],
      "stateMutability": "nonpayable",
      "type": "constructor"
    },
    {
      "anonymous": false,
      "inputs": [
        {
          "indexed": false,
          "internalType": "uint32",
          "name": "bidId",
          "type": "uint32"
        },
        {
          "indexed": false,
          "internalType": "address",
          "name": "from",
          "type": "address"
        }
      ],
      "name": "BidAccepted",
      "type": "event"
    },
    {
      "anonymous": false,
      "inputs": [
        {
          "indexed": false,
          "internalType": "address",
          "name": "tokenContract",
          "type": "address"
        },
        {
          "indexed": false,
          "internalType": "uint256",
          "name": "askAmount",
          "type": "uint256"
        },
        {
          "indexed": false,
          "internalType": "address",
          "name": "nftContract",
          "type": "address"
        },
        {
          "indexed": false,
          "internalType": "uint256",
          "name": "tokenId",
          "type": "uint256"
        },
        {
          "indexed": false,
          "internalType": "address",
          "name": "from",
          "type": "address"
        }
      ],
      "name": "BidCreated",
      "type": "event"
    },
    {
      "anonymous": false,
      "inputs": [
        {
          "indexed": false,
          "internalType": "uint32",
          "name": "bidId",
          "type": "uint32"
        }
      ],
      "name": "LoanDefaulted",
      "type": "event"
    },
    {
      "anonymous": false,
      "inputs": [
        {
          "indexed": false,
          "internalType": "uint32",
          "name": "bidId",
          "type": "uint32"
        },
        {
          "indexed": false,
          "internalType": "address",
          "name": "tokenPaidIn",
          "type": "address"
        },
        {
          "indexed": false,
          "internalType": "uint256",
          "name": "amountPaid",
          "type": "uint256"
        }
      ],
      "name": "LoanRepaid",
      "type": "event"
    },
    {
      "inputs": [
        {
          "internalType": "uint32",
          "name": "bidId",
          "type": "uint32"
        }
      ],
      "name": "acceptBid",
      "outputs": [],
      "stateMutability": "nonpayable",
      "type": "function"
    },
    {
      "inputs": [
        {
          "internalType": "address",
          "name": "",
          "type": "address"
        }
      ],
      "name": "acceptedNFTs",
      "outputs": [
        {
          "internalType": "bool",
          "name": "",
          "type": "bool"
        }
      ],
      "stateMutability": "view",
      "type": "function"
    },
    {
      "inputs": [
        {
          "internalType": "address",
          "name": "",
          "type": "address"
        }
      ],
      "name": "acceptedTokens",
      "outputs": [
        {
          "internalType": "bool",
          "name": "",
          "type": "bool"
        }
      ],
      "stateMutability": "view",
      "type": "function"
    },
    {
      "inputs": [
        {
          "internalType": "uint32",
          "name": "",
          "type": "uint32"
        }
      ],
      "name": "bids",
      "outputs": [
        {
          "internalType": "uint32",
          "name": "bidId",
          "type": "uint32"
        },
        {
          "internalType": "address",
          "name": "tokenContract",
          "type": "address"
        },
        {
          "internalType": "uint256",
          "name": "askAmount",
          "type": "uint256"
        },
        {
          "internalType": "address",
          "name": "from",
          "type": "address"
        },
        {
          "internalType": "address",
          "name": "nftContract",
          "type": "address"
        },
        {
          "internalType": "uint256",
          "name": "tokenId",
          "type": "uint256"
        },
        {
          "internalType": "bool",
          "name": "accepted",
          "type": "bool"
        },
        {
          "internalType": "bool",
          "name": "defaulted",
          "type": "bool"
        },
        {
          "internalType": "bool",
          "name": "repaid",
          "type": "bool"
        },
        {
          "internalType": "address",
          "name": "lender",
          "type": "address"
        }
      ],
      "stateMutability": "view",
      "type": "function"
    },
    {
      "inputs": [
        {
          "internalType": "address",
          "name": "",
          "type": "address"
        },
        {
          "internalType": "uint32",
          "name": "",
          "type": "uint32"
        }
      ],
      "name": "borrowerBids",
      "outputs": [
        {
          "internalType": "uint32",
          "name": "bidId",
          "type": "uint32"
        },
        {
          "internalType": "address",
          "name": "tokenContract",
          "type": "address"
        },
        {
          "internalType": "uint256",
          "name": "askAmount",
          "type": "uint256"
        },
        {
          "internalType": "address",
          "name": "from",
          "type": "address"
        },
        {
          "internalType": "address",
          "name": "nftContract",
          "type": "address"
        },
        {
          "internalType": "uint256",
          "name": "tokenId",
          "type": "uint256"
        },
        {
          "internalType": "bool",
          "name": "accepted",
          "type": "bool"
        },
        {
          "internalType": "bool",
          "name": "defaulted",
          "type": "bool"
        },
        {
          "internalType": "bool",
          "name": "repaid",
          "type": "bool"
        },
        {
          "internalType": "address",
          "name": "lender",
          "type": "address"
        }
      ],
      "stateMutability": "view",
      "type": "function"
    },
    {
      "inputs": [
        {
          "internalType": "address",
          "name": "_tokenAddress",
          "type": "address"
        },
        {
          "internalType": "uint256",
          "name": "_amount",
          "type": "uint256"
        },
        {
          "internalType": "address",
          "name": "_nftContract",
          "type": "address"
        },
        {
          "internalType": "uint256",
          "name": "_tokenId",
          "type": "uint256"
        }
      ],
      "name": "createBid",
      "outputs": [],
      "stateMutability": "nonpayable",
      "type": "function"
    },
    {
      "inputs": [],
      "name": "currentBidId",
      "outputs": [
        {
          "internalType": "uint32",
          "name": "",
          "type": "uint32"
        }
      ],
      "stateMutability": "view",
      "type": "function"
    },
    {
      "inputs": [
        {
          "internalType": "uint32",
          "name": "bidId",
          "type": "uint32"
        }
      ],
      "name": "defaultLoan",
      "outputs": [],
      "stateMutability": "nonpayable",
      "type": "function"
    },
    {
      "inputs": [],
      "name": "interest",
      "outputs": [
        {
          "internalType": "uint256",
          "name": "",
          "type": "uint256"
        }
      ],
      "stateMutability": "view",
      "type": "function"
    },
    {
      "inputs": [
        {
          "internalType": "address",
          "name": "",
          "type": "address"
        },
        {
          "internalType": "uint32",
          "name": "",
          "type": "uint32"
        }
      ],
      "name": "lenderAcceptedLoans",
      "outputs": [
        {
          "internalType": "uint32",
          "name": "bidId",
          "type": "uint32"
        },
        {
          "internalType": "address",
          "name": "tokenContract",
          "type": "address"
        },
        {
          "internalType": "uint256",
          "name": "askAmount",
          "type": "uint256"
        },
        {
          "internalType": "address",
          "name": "from",
          "type": "address"
        },
        {
          "internalType": "address",
          "name": "nftContract",
          "type": "address"
        },
        {
          "internalType": "uint256",
          "name": "tokenId",
          "type": "uint256"
        },
        {
          "internalType": "bool",
          "name": "accepted",
          "type": "bool"
        },
        {
          "internalType": "bool",
          "name": "defaulted",
          "type": "bool"
        },
        {
          "internalType": "bool",
          "name": "repaid",
          "type": "bool"
        },
        {
          "internalType": "address",
          "name": "lender",
          "type": "address"
        }
      ],
      "stateMutability": "view",
      "type": "function"
    },
    {
      "inputs": [
        {
          "internalType": "address",
          "name": "operator",
          "type": "address"
        },
        {
          "internalType": "address",
          "name": "from",
          "type": "address"
        },
        {
          "internalType": "uint256",
          "name": "tokenId",
          "type": "uint256"
        },
        {
          "internalType": "bytes",
          "name": "data",
          "type": "bytes"
        }
      ],
      "name": "onERC721Received",
      "outputs": [
        {
          "internalType": "bytes4",
          "name": "",
          "type": "bytes4"
        }
      ],
      "stateMutability": "nonpayable",
      "type": "function"
    },
    {
      "inputs": [
        {
          "internalType": "uint32",
          "name": "bidId",
          "type": "uint32"
        }
      ],
      "name": "repayLoan",
      "outputs": [],
      "stateMutability": "nonpayable",
      "type": "function"
    }
  ],
  "bytecode": "0x60806040526103e86006553480156200001757600080fd5b50604051620028f0380380620028f083398181016040528101906200003d919062000106565b6001600360008373ffffffffffffffffffffffffffffffffffffffff1673ffffffffffffffffffffffffffffffffffffffff16815260200190815260200160002060006101000a81548160ff0219169083151502179055505062000138565b600080fd5b600073ffffffffffffffffffffffffffffffffffffffff82169050919050565b6000620000ce82620000a1565b9050919050565b620000e081620000c1565b8114620000ec57600080fd5b50565b6000815190506200010081620000d5565b92915050565b6000602082840312156200011f576200011e6200009c565b5b60006200012f84828501620000ef565b91505092915050565b6127a880620001486000396000f3fe608060405234801561001057600080fd5b50600436106100b45760003560e01c8063948355a711610071578063948355a7146101d7578063b85e471b146101f3578063ba83a73714610211578063bd3a27b01461024a578063c392f76614610266578063e8f4343c14610284576100b4565b806308c40531146100b9578063150b7a02146100e957806350892fbe146101195780635712525b1461015257806369401b541461018b57806382dc4a05146101a7575b600080fd5b6100d360048036038101906100ce9190611b83565b6102a0565b6040516100e09190611bcb565b60405180910390f35b61010360048036038101906100fe9190611c81565b6102c0565b6040516101109190611d44565b60405180910390f35b610133600480360381019061012e9190611d9b565b6102d5565b6040516101499a99989796959493929190611df5565b60405180910390f35b61016c60048036038101906101679190611e91565b6103e0565b6040516101829a99989796959493929190611df5565b60405180910390f35b6101a560048036038101906101a09190611d9b565b6104f8565b005b6101c160048036038101906101bc9190611b83565b6109ef565b6040516101ce9190611bcb565b60405180910390f35b6101f160048036038101906101ec9190611d9b565b610a0f565b005b6101fb610f2e565b6040516102089190611ed1565b60405180910390f35b61022b60048036038101906102269190611e91565b610f44565b6040516102419a99989796959493929190611df5565b60405180910390f35b610264600480360381019061025f9190611eec565b61105c565b005b61026e611702565b60405161027b9190611f53565b60405180910390f35b61029e60048036038101906102999190611d9b565b611708565b005b60046020528060005260406000206000915054906101000a900460ff1681565b600063150b7a0260e01b905095945050505050565b60006020528060005260406000206000915090508060000160009054906101000a900463ffffffff16908060000160049054906101000a900473ffffffffffffffffffffffffffffffffffffffff16908060010154908060020160009054906101000a900473ffffffffffffffffffffffffffffffffffffffff16908060030160009054906101000a900473ffffffffffffffffffffffffffffffffffffffff16908060040154908060050160009054906101000a900460ff16908060050160019054906101000a900460ff16908060050160029054906101000a900460ff16908060050160039054906101000a900473ffffffffffffffffffffffffffffffffffffffff1690508a565b6001602052816000526040600020602052806000526040600020600091509150508060000160009054906101000a900463ffffffff16908060000160049054906101000a900473ffffffffffffffffffffffffffffffffffffffff16908060010154908060020160009054906101000a900473ffffffffffffffffffffffffffffffffffffffff16908060030160009054906101000a900473ffffffffffffffffffffffffffffffffffffffff16908060040154908060050160009054906101000a900460ff16908060050160019054906101000a900460ff16908060050160029054906101000a900460ff16908060050160039054906101000a900473ffffffffffffffffffffffffffffffffffffffff1690508a565b60008060008363ffffffff1663ffffffff16815260200190815260200160002090508060050160009054906101000a900460ff1661056b576040517f08c379a000000000000000000000000000000000000000000000000000000000815260040161056290611fcb565b60405180910390fd5b3373ffffffffffffffffffffffffffffffffffffffff168160020160009054906101000a900473ffffffffffffffffffffffffffffffffffffffff1673ffffffffffffffffffffffffffffffffffffffff16146105fd576040517f08c379a00000000000000000000000000000000000000000000000000000000081526004016105f49061205d565b60405180910390fd5b60008160000160049054906101000a900473ffffffffffffffffffffffffffffffffffffffff1690506000600654836001015461063a91906120ac565b9050808273ffffffffffffffffffffffffffffffffffffffff166370a08231336040518263ffffffff1660e01b815260040161067691906120e0565b602060405180830381865afa158015610693573d6000803e3d6000fd5b505050506040513d601f19601f820116820180604052508101906106b79190612110565b10156106f8576040517f08c379a00000000000000000000000000000000000000000000000000000000081526004016106ef906121af565b60405180910390fd5b8173ffffffffffffffffffffffffffffffffffffffff166323b872dd3330846040518463ffffffff1660e01b8152600401610735939291906121cf565b6020604051808303816000875af1158015610754573d6000803e3d6000fd5b505050506040513d601f19601f820116820180604052508101906107789190612232565b6107b7576040517f08c379a00000000000000000000000000000000000000000000000000000000081526004016107ae906122ab565b60405180910390fd5b60008360030160009054906101000a900473ffffffffffffffffffffffffffffffffffffffff1690508073ffffffffffffffffffffffffffffffffffffffff166323b872dd303387600401546040518463ffffffff1660e01b8152600401610821939291906121cf565b600060405180830381600087803b15801561083b57600080fd5b505af115801561084f573d6000803e3d6000fd5b5050505060018460050160026101000a81548160ff02191690831515021790555060018060003373ffffffffffffffffffffffffffffffffffffffff1673ffffffffffffffffffffffffffffffffffffffff16815260200190815260200160002060008763ffffffff1663ffffffff16815260200190815260200160002060050160026101000a81548160ff02191690831515021790555060008460050160039054906101000a900473ffffffffffffffffffffffffffffffffffffffff1690506001600260008373ffffffffffffffffffffffffffffffffffffffff1673ffffffffffffffffffffffffffffffffffffffff16815260200190815260200160002060008863ffffffff1663ffffffff16815260200190815260200160002060050160026101000a81548160ff0219169083151502179055507fb5634f4b927cc9d347aadb5b7b887e9a5a093db24700551eecdce431d1b8846c868660000160049054906101000a900473ffffffffffffffffffffffffffffffffffffffff16856040516109df939291906122cb565b60405180910390a1505050505050565b60036020528060005260406000206000915054906101000a900460ff1681565b6000808263ffffffff1663ffffffff16815260200190815260200160002060000160049054906101000a900473ffffffffffffffffffffffffffffffffffffffff16600360008273ffffffffffffffffffffffffffffffffffffffff1673ffffffffffffffffffffffffffffffffffffffff16815260200190815260200160002060009054906101000a900460ff16610add576040517f08c379a0000000000000000000000000000000000000000000000000000000008152600401610ad49061234e565b60405180910390fd5b60008060008463ffffffff1663ffffffff16815260200190815260200160002090508060050160009054906101000a900460ff1615610b51576040517f08c379a0000000000000000000000000000000000000000000000000000000008152600401610b48906123ba565b60405180910390fd5b60008160000160049054906101000a900473ffffffffffffffffffffffffffffffffffffffff1690508073ffffffffffffffffffffffffffffffffffffffff166323b872dd338460020160009054906101000a900473ffffffffffffffffffffffffffffffffffffffff1685600101546040518463ffffffff1660e01b8152600401610bdf939291906121cf565b6020604051808303816000875af1158015610bfe573d6000803e3d6000fd5b505050506040513d601f19601f82011682018060405250810190610c229190612232565b610c61576040517f08c379a0000000000000000000000000000000000000000000000000000000008152600401610c5890612426565b60405180910390fd5b60008260030160009054906101000a900473ffffffffffffffffffffffffffffffffffffffff1690503073ffffffffffffffffffffffffffffffffffffffff168173ffffffffffffffffffffffffffffffffffffffff16636352211e85600401546040518263ffffffff1660e01b8152600401610cde9190611f53565b602060405180830381865afa158015610cfb573d6000803e3d6000fd5b505050506040513d601f19601f82011682018060405250810190610d1f919061245b565b73ffffffffffffffffffffffffffffffffffffffff1614610d75576040517f08c379a0000000000000000000000000000000000000000000000000000000008152600401610d6c906124fa565b60405180910390fd5b60018360050160006101000a81548160ff021916908315150217905550338360050160036101000a81548173ffffffffffffffffffffffffffffffffffffffff021916908373ffffffffffffffffffffffffffffffffffffffff16021790555060008360020160009054906101000a900473ffffffffffffffffffffffffffffffffffffffff16905060018060008373ffffffffffffffffffffffffffffffffffffffff1673ffffffffffffffffffffffffffffffffffffffff16815260200190815260200160002060008863ffffffff1663ffffffff16815260200190815260200160002060050160006101000a81548160ff0219169083151502179055506001600260003373ffffffffffffffffffffffffffffffffffffffff1673ffffffffffffffffffffffffffffffffffffffff16815260200190815260200160002060008863ffffffff1663ffffffff16815260200190815260200160002060050160006101000a81548160ff0219169083151502179055507f415c1ba2aff0efbb6d1459b5049e0b8690cfd31dcd446592102ecc1eae5d94f08633604051610f1e92919061251a565b60405180910390a1505050505050565b600560009054906101000a900463ffffffff1681565b6002602052816000526040600020602052806000526040600020600091509150508060000160009054906101000a900463ffffffff16908060000160049054906101000a900473ffffffffffffffffffffffffffffffffffffffff16908060010154908060020160009054906101000a900473ffffffffffffffffffffffffffffffffffffffff16908060030160009054906101000a900473ffffffffffffffffffffffffffffffffffffffff16908060040154908060050160009054906101000a900460ff16908060050160019054906101000a900460ff16908060050160029054906101000a900460ff16908060050160039054906101000a900473ffffffffffffffffffffffffffffffffffffffff1690508a565b60008290503373ffffffffffffffffffffffffffffffffffffffff168173ffffffffffffffffffffffffffffffffffffffff16636352211e846040518263ffffffff1660e01b81526004016110b19190611f53565b602060405180830381865afa1580156110ce573d6000803e3d6000fd5b505050506040513d601f19601f820116820180604052508101906110f2919061245b565b73ffffffffffffffffffffffffffffffffffffffff1614611148576040517f08c379a000000000000000000000000000000000000000000000000000000000815260040161113f9061258f565b60405180910390fd5b8073ffffffffffffffffffffffffffffffffffffffff166342842e0e3330856040518463ffffffff1660e01b8152600401611185939291906121cf565b600060405180830381600087803b15801561119f57600080fd5b505af11580156111b3573d6000803e3d6000fd5b5050505060006040518061014001604052806005600081819054906101000a900463ffffffff166111e3906125af565b91906101000a81548163ffffffff021916908363ffffffff160217905563ffffffff1681526020018773ffffffffffffffffffffffffffffffffffffffff1681526020018681526020013373ffffffffffffffffffffffffffffffffffffffff1681526020018573ffffffffffffffffffffffffffffffffffffffff168152602001848152602001600015158152602001600015158152602001600015158152602001600073ffffffffffffffffffffffffffffffffffffffff16815250905080600080600560009054906101000a900463ffffffff1663ffffffff1663ffffffff16815260200190815260200160002060008201518160000160006101000a81548163ffffffff021916908363ffffffff16021790555060208201518160000160046101000a81548173ffffffffffffffffffffffffffffffffffffffff021916908373ffffffffffffffffffffffffffffffffffffffff1602179055506040820151816001015560608201518160020160006101000a81548173ffffffffffffffffffffffffffffffffffffffff021916908373ffffffffffffffffffffffffffffffffffffffff16021790555060808201518160030160006101000a81548173ffffffffffffffffffffffffffffffffffffffff021916908373ffffffffffffffffffffffffffffffffffffffff16021790555060a0820151816004015560c08201518160050160006101000a81548160ff02191690831515021790555060e08201518160050160016101000a81548160ff0219169083151502179055506101008201518160050160026101000a81548160ff0219169083151502179055506101208201518160050160036101000a81548173ffffffffffffffffffffffffffffffffffffffff021916908373ffffffffffffffffffffffffffffffffffffffff16021790555090505080600160003373ffffffffffffffffffffffffffffffffffffffff1673ffffffffffffffffffffffffffffffffffffffff1681526020019081526020016000206000600560009054906101000a900463ffffffff1663ffffffff1663ffffffff16815260200190815260200160002060008201518160000160006101000a81548163ffffffff021916908363ffffffff16021790555060208201518160000160046101000a81548173ffffffffffffffffffffffffffffffffffffffff021916908373ffffffffffffffffffffffffffffffffffffffff1602179055506040820151816001015560608201518160020160006101000a81548173ffffffffffffffffffffffffffffffffffffffff021916908373ffffffffffffffffffffffffffffffffffffffff16021790555060808201518160030160006101000a81548173ffffffffffffffffffffffffffffffffffffffff021916908373ffffffffffffffffffffffffffffffffffffffff16021790555060a0820151816004015560c08201518160050160006101000a81548160ff02191690831515021790555060e08201518160050160016101000a81548160ff0219169083151502179055506101008201518160050160026101000a81548160ff0219169083151502179055506101208201518160050160036101000a81548173ffffffffffffffffffffffffffffffffffffffff021916908373ffffffffffffffffffffffffffffffffffffffff1602179055509050507f5d0b1cbe752aae8ade43db77b284bc0fb2d3a115b0412ccd4ce7ce3eab55bfdf86868686336040516116f29594939291906125db565b60405180910390a1505050505050565b60065481565b60008060008363ffffffff1663ffffffff16815260200190815260200160002090508060050160019054906101000a900460ff161561177c576040517f08c379a00000000000000000000000000000000000000000000000000000000081526004016117739061267a565b60405180910390fd5b3373ffffffffffffffffffffffffffffffffffffffff168160050160039054906101000a900473ffffffffffffffffffffffffffffffffffffffff1673ffffffffffffffffffffffffffffffffffffffff161461180e576040517f08c379a0000000000000000000000000000000000000000000000000000000008152600401611805906126e6565b60405180910390fd5b60008160030160009054906101000a900473ffffffffffffffffffffffffffffffffffffffff1690503073ffffffffffffffffffffffffffffffffffffffff168173ffffffffffffffffffffffffffffffffffffffff16636352211e84600401546040518263ffffffff1660e01b815260040161188b9190611f53565b602060405180830381865afa1580156118a8573d6000803e3d6000fd5b505050506040513d601f19601f820116820180604052508101906118cc919061245b565b73ffffffffffffffffffffffffffffffffffffffff1614611922576040517f08c379a000000000000000000000000000000000000000000000000000000000815260040161191990612752565b60405180910390fd5b8073ffffffffffffffffffffffffffffffffffffffff166342842e0e303385600401546040518463ffffffff1660e01b8152600401611963939291906121cf565b600060405180830381600087803b15801561197d57600080fd5b505af1158015611991573d6000803e3d6000fd5b5050505060018260050160016101000a81548160ff02191690831515021790555060018060003373ffffffffffffffffffffffffffffffffffffffff1673ffffffffffffffffffffffffffffffffffffffff16815260200190815260200160002060008563ffffffff1663ffffffff16815260200190815260200160002060050160016101000a81548160ff02191690831515021790555060008260050160039054906101000a900473ffffffffffffffffffffffffffffffffffffffff1690506001600260008373ffffffffffffffffffffffffffffffffffffffff1673ffffffffffffffffffffffffffffffffffffffff16815260200190815260200160002060008663ffffffff1663ffffffff16815260200190815260200160002060050160016101000a81548160ff0219169083151502179055507f7405f2886b5eb0578773a70ad4f3bcfbd604d4ad145cedbe563aecd40c88ef528360000160009054906101000a900463ffffffff16604051611b0d9190611ed1565b60405180910390a150505050565b600080fd5b600080fd5b600073ffffffffffffffffffffffffffffffffffffffff82169050919050565b6000611b5082611b25565b9050919050565b611b6081611b45565b8114611b6b57600080fd5b50565b600081359050611b7d81611b57565b92915050565b600060208284031215611b9957611b98611b1b565b5b6000611ba784828501611b6e565b91505092915050565b60008115159050919050565b611bc581611bb0565b82525050565b6000602082019050611be06000830184611bbc565b92915050565b6000819050919050565b611bf981611be6565b8114611c0457600080fd5b50565b600081359050611c1681611bf0565b92915050565b600080fd5b600080fd5b600080fd5b60008083601f840112611c4157611c40611c1c565b5b8235905067ffffffffffffffff811115611c5e57611c5d611c21565b5b602083019150836001820283011115611c7a57611c79611c26565b5b9250929050565b600080600080600060808688031215611c9d57611c9c611b1b565b5b6000611cab88828901611b6e565b9550506020611cbc88828901611b6e565b9450506040611ccd88828901611c07565b935050606086013567ffffffffffffffff811115611cee57611ced611b20565b5b611cfa88828901611c2b565b92509250509295509295909350565b60007fffffffff0000000000000000000000000000000000000000000000000000000082169050919050565b611d3e81611d09565b82525050565b6000602082019050611d596000830184611d35565b92915050565b600063ffffffff82169050919050565b611d7881611d5f565b8114611d8357600080fd5b50565b600081359050611d9581611d6f565b92915050565b600060208284031215611db157611db0611b1b565b5b6000611dbf84828501611d86565b91505092915050565b611dd181611d5f565b82525050565b611de081611b45565b82525050565b611def81611be6565b82525050565b600061014082019050611e0b600083018d611dc8565b611e18602083018c611dd7565b611e25604083018b611de6565b611e32606083018a611dd7565b611e3f6080830189611dd7565b611e4c60a0830188611de6565b611e5960c0830187611bbc565b611e6660e0830186611bbc565b611e74610100830185611bbc565b611e82610120830184611dd7565b9b9a5050505050505050505050565b60008060408385031215611ea857611ea7611b1b565b5b6000611eb685828601611b6e565b9250506020611ec785828601611d86565b9150509250929050565b6000602082019050611ee66000830184611dc8565b92915050565b60008060008060808587031215611f0657611f05611b1b565b5b6000611f1487828801611b6e565b9450506020611f2587828801611c07565b9350506040611f3687828801611b6e565b9250506060611f4787828801611c07565b91505092959194509250565b6000602082019050611f686000830184611de6565b92915050565b600082825260208201905092915050565b7f43616e2774207265706179206c6f616e206966206e6f74206163636570746564600082015250565b6000611fb5602083611f6e565b9150611fc082611f7f565b602082019050919050565b60006020820190508181036000830152611fe481611fa8565b9050919050565b7f4f6e6c79207468652063726561746f72206f6620746865206269642063616e2060008201527f726570617920746865206c6f616e210000000000000000000000000000000000602082015250565b6000612047602f83611f6e565b915061205282611feb565b604082019050919050565b600060208201905081810360008301526120768161203a565b9050919050565b7f4e487b7100000000000000000000000000000000000000000000000000000000600052601160045260246000fd5b60006120b782611be6565b91506120c283611be6565b92508282019050808211156120da576120d961207d565b5b92915050565b60006020820190506120f56000830184611dd7565b92915050565b60008151905061210a81611bf0565b92915050565b60006020828403121561212657612125611b1b565b5b6000612134848285016120fb565b91505092915050565b7f53656e64657220646f65736e277420686176652074686520726571756972656460008201527f2066756e64730000000000000000000000000000000000000000000000000000602082015250565b6000612199602683611f6e565b91506121a48261213d565b604082019050919050565b600060208201905081810360008301526121c88161218c565b9050919050565b60006060820190506121e46000830186611dd7565b6121f16020830185611dd7565b6121fe6040830184611de6565b949350505050565b61220f81611bb0565b811461221a57600080fd5b50565b60008151905061222c81612206565b92915050565b60006020828403121561224857612247611b1b565b5b60006122568482850161221d565b91505092915050565b7f546f6b656e20636f756c646e2774206265207472616e73666572726564210000600082015250565b6000612295601e83611f6e565b91506122a08261225f565b602082019050919050565b600060208201905081810360008301526122c481612288565b9050919050565b60006060820190506122e06000830186611dc8565b6122ed6020830185611dd7565b6122fa6040830184611de6565b949350505050565b7f4e6f7420616e20616363657074656420746f6b656e2100000000000000000000600082015250565b6000612338601683611f6e565b915061234382612302565b602082019050919050565b600060208201905081810360008301526123678161232b565b9050919050565b7f42696420616c7265616479206163636570746564000000000000000000000000600082015250565b60006123a4601483611f6e565b91506123af8261236e565b602082019050919050565b600060208201905081810360008301526123d381612397565b9050919050565b7f546f6b656e207472616e73666572206661696c65640000000000000000000000600082015250565b6000612410601583611f6e565b915061241b826123da565b602082019050919050565b6000602082019050818103600083015261243f81612403565b9050919050565b60008151905061245581611b57565b92915050565b60006020828403121561247157612470611b1b565b5b600061247f84828501612446565b91505092915050565b7f4e4654206973206e6f74207374616b656420696e2074686520636f6e7472616360008201527f7400000000000000000000000000000000000000000000000000000000000000602082015250565b60006124e4602183611f6e565b91506124ef82612488565b604082019050919050565b60006020820190508181036000830152612513816124d7565b9050919050565b600060408201905061252f6000830185611dc8565b61253c6020830184611dd7565b9392505050565b7f4d757374206f776e2074686520746f6b656e20746f2073656e64210000000000600082015250565b6000612579601b83611f6e565b915061258482612543565b602082019050919050565b600060208201905081810360008301526125a88161256c565b9050919050565b60006125ba82611d5f565b915063ffffffff82036125d0576125cf61207d565b5b600182019050919050565b600060a0820190506125f06000830188611dd7565b6125fd6020830187611de6565b61260a6040830186611dd7565b6126176060830185611de6565b6126246080830184611dd7565b9695505050505050565b7f4c6f616e20697320616c72656164792064656661756c74656400000000000000600082015250565b6000612664601983611f6e565b915061266f8261262e565b602082019050919050565b6000602082019050818103600083015261269381612657565b9050919050565b7f4c656e646572206e6f7420746865206d73672e73656e64657221000000000000600082015250565b60006126d0601a83611f6e565b91506126db8261269a565b602082019050919050565b600060208201905081810360008301526126ff816126c3565b9050919050565b7f4e4654206e6f74207374616b6564210000000000000000000000000000000000600082015250565b600061273c600f83611f6e565b915061274782612706565b602082019050919050565b6000602082019050818103600083015261276b8161272f565b905091905056fea2646970667358221220f6d6b456a674ae9d5eca0c98544c65e2961f835e7242f94d6488afd2c0b4d9d664736f6c63430008140033",
  "linkReferences": {},
  "deployedLinkReferences": {}
}