{
  "_format": "hh-sol-artifact-1",
  "contractName": "CollateralToken",
  "sourceName": "contracts/CollateralToken.sol",
  "abi": [
    {
      "inputs": [
        {
          "internalType": "address",
          "name": "initialOwner",
          "type": "address"
        }
      ],
      "stateMutability": "nonpayable",
      "type": "constructor"
    },
    {
      "inputs": [
        {
          "internalType": "address",
          "name": "sender",
          "type": "address"
        },
        {
          "internalType": "uint256",
          "name": "tokenId",
          "type": "uint256"
        },
        {
          "internalType": "address",
          "name": "owner",
          "type": "address"
        }
      ],
      "name": "ERC721IncorrectOwner",
      "type": "error"
    },
    {
      "inputs": [
        {
          "internalType": "address",
          "name": "operator",
          "type": "address"
        },
        {
          "internalType": "uint256",
          "name": "tokenId",
          "type": "uint256"
        }
      ],
      "name": "ERC721InsufficientApproval",
      "type": "error"
    },
    {
      "inputs": [
        {
          "internalType": "address",
          "name": "approver",
          "type": "address"
        }
      ],
      "name": "ERC721InvalidApprover",
      "type": "error"
    },
    {
      "inputs": [
        {
          "internalType": "address",
          "name": "operator",
          "type": "address"
        }
      ],
      "name": "ERC721InvalidOperator",
      "type": "error"
    },
    {
      "inputs": [
        {
          "internalType": "address",
          "name": "owner",
          "type": "address"
        }
      ],
      "name": "ERC721InvalidOwner",
      "type": "error"
    },
    {
      "inputs": [
        {
          "internalType": "address",
          "name": "receiver",
          "type": "address"
        }
      ],
      "name": "ERC721InvalidReceiver",
      "type": "error"
    },
    {
      "inputs": [
        {
          "internalType": "address",
          "name": "sender",
          "type": "address"
        }
      ],
      "name": "ERC721InvalidSender",
      "type": "error"
    },
    {
      "inputs": [
        {
          "internalType": "uint256",
          "name": "tokenId",
          "type": "uint256"
        }
      ],
      "name": "ERC721NonexistentToken",
      "type": "error"
    },
    {
      "inputs": [
        {
          "internalType": "address",
          "name": "owner",
          "type": "address"
        }
      ],
      "name": "OwnableInvalidOwner",
      "type": "error"
    },
    {
      "inputs": [
        {
          "internalType": "address",
          "name": "account",
          "type": "address"
        }
      ],
      "name": "OwnableUnauthorizedAccount",
      "type": "error"
    },
    {
      "anonymous": false,
      "inputs": [
        {
          "indexed": true,
          "internalType": "address",
          "name": "owner",
          "type": "address"
        },
        {
          "indexed": true,
          "internalType": "address",
          "name": "approved",
          "type": "address"
        },
        {
          "indexed": true,
          "internalType": "uint256",
          "name": "tokenId",
          "type": "uint256"
        }
      ],
      "name": "Approval",
      "type": "event"
    },
    {
      "anonymous": false,
      "inputs": [
        {
          "indexed": true,
          "internalType": "address",
          "name": "owner",
          "type": "address"
        },
        {
          "indexed": true,
          "internalType": "address",
          "name": "operator",
          "type": "address"
        },
        {
          "indexed": false,
          "internalType": "bool",
          "name": "approved",
          "type": "bool"
        }
      ],
      "name": "ApprovalForAll",
      "type": "event"
    },
    {
      "anonymous": false,
      "inputs": [
        {
          "indexed": true,
          "internalType": "address",
          "name": "previousOwner",
          "type": "address"
        },
        {
          "indexed": true,
          "internalType": "address",
          "name": "newOwner",
          "type": "address"
        }
      ],
      "name": "OwnershipTransferred",
      "type": "event"
    },
    {
      "anonymous": false,
      "inputs": [
        {
          "indexed": true,
          "internalType": "address",
          "name": "from",
          "type": "address"
        },
        {
          "indexed": true,
          "internalType": "address",
          "name": "to",
          "type": "address"
        },
        {
          "indexed": true,
          "internalType": "uint256",
          "name": "tokenId",
          "type": "uint256"
        }
      ],
      "name": "Transfer",
      "type": "event"
    },
    {
      "inputs": [
        {
          "internalType": "address",
          "name": "to",
          "type": "address"
        },
        {
          "internalType": "uint256",
          "name": "tokenId",
          "type": "uint256"
        }
      ],
      "name": "approve",
      "outputs": [],
      "stateMutability": "nonpayable",
      "type": "function"
    },
    {
      "inputs": [
        {
          "internalType": "address",
          "name": "owner",
          "type": "address"
        }
      ],
      "name": "balanceOf",
      "outputs": [
        {
          "internalType": "uint256",
          "name": "",
          "type": "uint256"
        }
      ],
      "stateMutability": "view",
      "type": "function"
    },
    {
      "inputs": [],
      "name": "currentTokenId",
      "outputs": [
        {
          "internalType": "uint256",
          "name": "",
          "type": "uint256"
        }
      ],
      "stateMutability": "view",
      "type": "function"
    },
    {
      "inputs": [
        {
          "internalType": "uint256",
          "name": "tokenId",
          "type": "uint256"
        }
      ],
      "name": "getApproved",
      "outputs": [
        {
          "internalType": "address",
          "name": "",
          "type": "address"
        }
      ],
      "stateMutability": "view",
      "type": "function"
    },
    {
      "inputs": [
        {
          "internalType": "address",
          "name": "owner",
          "type": "address"
        },
        {
          "internalType": "address",
          "name": "operator",
          "type": "address"
        }
      ],
      "name": "isApprovedForAll",
      "outputs": [
        {
          "internalType": "bool",
          "name": "",
          "type": "bool"
        }
      ],
      "stateMutability": "view",
      "type": "function"
    },
    {
      "inputs": [
        {
          "internalType": "address",
          "name": "to",
          "type": "address"
        }
      ],
      "name": "mint",
      "outputs": [],
      "stateMutability": "nonpayable",
      "type": "function"
    },
    {
      "inputs": [],
      "name": "name",
      "outputs": [
        {
          "internalType": "string",
          "name": "",
          "type": "string"
        }
      ],
      "stateMutability": "view",
      "type": "function"
    },
    {
      "inputs": [],
      "name": "owner",
      "outputs": [
        {
          "internalType": "address",
          "name": "",
          "type": "address"
        }
      ],
      "stateMutability": "view",
      "type": "function"
    },
    {
      "inputs": [
        {
          "internalType": "uint256",
          "name": "tokenId",
          "type": "uint256"
        }
      ],
      "name": "ownerOf",
      "outputs": [
        {
          "internalType": "address",
          "name": "",
          "type": "address"
        }
      ],
      "stateMutability": "view",
      "type": "function"
    },
    {
      "inputs": [],
      "name": "renounceOwnership",
      "outputs": [],
      "stateMutability": "nonpayable",
      "type": "function"
    },
    {
      "inputs": [
        {
          "internalType": "address",
          "name": "from",
          "type": "address"
        },
        {
          "internalType": "address",
          "name": "to",
          "type": "address"
        },
        {
          "internalType": "uint256",
          "name": "tokenId",
          "type": "uint256"
        }
      ],
      "name": "safeTransferFrom",
      "outputs": [],
      "stateMutability": "nonpayable",
      "type": "function"
    },
    {
      "inputs": [
        {
          "internalType": "address",
          "name": "from",
          "type": "address"
        },
        {
          "internalType": "address",
          "name": "to",
          "type": "address"
        },
        {
          "internalType": "uint256",
          "name": "tokenId",
          "type": "uint256"
        },
        {
          "internalType": "bytes",
          "name": "data",
          "type": "bytes"
        }
      ],
      "name": "safeTransferFrom",
      "outputs": [],
      "stateMutability": "nonpayable",
      "type": "function"
    },
    {
      "inputs": [
        {
          "internalType": "address",
          "name": "operator",
          "type": "address"
        },
        {
          "internalType": "bool",
          "name": "approved",
          "type": "bool"
        }
      ],
      "name": "setApprovalForAll",
      "outputs": [],
      "stateMutability": "nonpayable",
      "type": "function"
    },
    {
      "inputs": [
        {
          "internalType": "bytes4",
          "name": "interfaceId",
          "type": "bytes4"
        }
      ],
      "name": "supportsInterface",
      "outputs": [
        {
          "internalType": "bool",
          "name": "",
          "type": "bool"
        }
      ],
      "stateMutability": "view",
      "type": "function"
    },
    {
      "inputs": [],
      "name": "symbol",
      "outputs": [
        {
          "internalType": "string",
          "name": "",
          "type": "string"
        }
      ],
      "stateMutability": "view",
      "type": "function"
    },
    {
      "inputs": [
        {
          "internalType": "uint256",
          "name": "tokenId",
          "type": "uint256"
        }
      ],
      "name": "tokenURI",
      "outputs": [
        {
          "internalType": "string",
          "name": "",
          "type": "string"
        }
      ],
      "stateMutability": "view",
      "type": "function"
    },
    {
      "inputs": [
        {
          "internalType": "address",
          "name": "from",
          "type": "address"
        },
        {
          "internalType": "address",
          "name": "to",
          "type": "address"
        },
        {
          "internalType": "uint256",
          "name": "tokenId",
          "type": "uint256"
        }
      ],
      "name": "transferFrom",
      "outputs": [],
      "stateMutability": "nonpayable",
      "type": "function"
    },
    {
      "inputs": [
        {
          "internalType": "address",
          "name": "newOwner",
          "type": "address"
        }
      ],
      "name": "transferOwnership",
      "outputs": [],
      "stateMutability": "nonpayable",
      "type": "function"
    }
  ],
  "bytecode": "0x60806040523480156200001157600080fd5b506040516200278938038062002789833981810160405281019062000037919062000288565b806040518060400160405280601881526020017f436f6e73656e737973436f6c6c61746572616c546f6b656e00000000000000008152506040518060400160405280600481526020017f43535953000000000000000000000000000000000000000000000000000000008152508160009081620000b5919062000534565b508060019081620000c7919062000534565b505050600073ffffffffffffffffffffffffffffffffffffffff168173ffffffffffffffffffffffffffffffffffffffff16036200013f5760006040517f1e4fbdf70000000000000000000000000000000000000000000000000000000081526004016200013691906200062c565b60405180910390fd5b62000150816200015860201b60201c565b505062000649565b6000600660009054906101000a900473ffffffffffffffffffffffffffffffffffffffff16905081600660006101000a81548173ffffffffffffffffffffffffffffffffffffffff021916908373ffffffffffffffffffffffffffffffffffffffff1602179055508173ffffffffffffffffffffffffffffffffffffffff168173ffffffffffffffffffffffffffffffffffffffff167f8be0079c531659141344cd1fd0a4f28419497f9722a3daafe3b4186f6b6457e060405160405180910390a35050565b600080fd5b600073ffffffffffffffffffffffffffffffffffffffff82169050919050565b6000620002508262000223565b9050919050565b620002628162000243565b81146200026e57600080fd5b50565b600081519050620002828162000257565b92915050565b600060208284031215620002a157620002a06200021e565b5b6000620002b18482850162000271565b91505092915050565b600081519050919050565b7f4e487b7100000000000000000000000000000000000000000000000000000000600052604160045260246000fd5b7f4e487b7100000000000000000000000000000000000000000000000000000000600052602260045260246000fd5b600060028204905060018216806200033c57607f821691505b602082108103620003525762000351620002f4565b5b50919050565b60008190508160005260206000209050919050565b60006020601f8301049050919050565b600082821b905092915050565b600060088302620003bc7fffffffffffffffffffffffffffffffffffffffffffffffffffffffffffffffff826200037d565b620003c886836200037d565b95508019841693508086168417925050509392505050565b6000819050919050565b6000819050919050565b6000620004156200040f6200040984620003e0565b620003ea565b620003e0565b9050919050565b6000819050919050565b6200043183620003f4565b6200044962000440826200041c565b8484546200038a565b825550505050565b600090565b6200046062000451565b6200046d81848462000426565b505050565b5b8181101562000495576200048960008262000456565b60018101905062000473565b5050565b601f821115620004e457620004ae8162000358565b620004b9846200036d565b81016020851015620004c9578190505b620004e1620004d8856200036d565b83018262000472565b50505b505050565b600082821c905092915050565b60006200050960001984600802620004e9565b1980831691505092915050565b6000620005248383620004f6565b9150826002028217905092915050565b6200053f82620002ba565b67ffffffffffffffff8111156200055b576200055a620002c5565b5b62000567825462000323565b6200057482828562000499565b600060209050601f831160018114620005ac576000841562000597578287015190505b620005a3858262000516565b86555062000613565b601f198416620005bc8662000358565b60005b82811015620005e657848901518255600182019150602085019450602081019050620005bf565b8683101562000606578489015162000602601f891682620004f6565b8355505b6001600288020188555050505b505050505050565b620006268162000243565b82525050565b60006020820190506200064360008301846200061b565b92915050565b61213080620006596000396000f3fe608060405234801561001057600080fd5b50600436106101155760003560e01c806370a08231116100a2578063a22cb46511610071578063a22cb465146102cc578063b88d4fde146102e8578063c87b56dd14610304578063e985e9c514610334578063f2fde38b1461036457610115565b806370a0823114610256578063715018a6146102865780638da5cb5b1461029057806395d89b41146102ae57610115565b8063095ea7b3116100e9578063095ea7b3146101b657806323b872dd146101d257806342842e0e146101ee5780636352211e1461020a5780636a6278421461023a57610115565b80629a9b7b1461011a57806301ffc9a71461013857806306fdde0314610168578063081812fc14610186575b600080fd5b610122610380565b60405161012f91906118b0565b60405180910390f35b610152600480360381019061014d9190611937565b610386565b60405161015f919061197f565b60405180910390f35b610170610468565b60405161017d9190611a2a565b60405180910390f35b6101a0600480360381019061019b9190611a78565b6104fa565b6040516101ad9190611ae6565b60405180910390f35b6101d060048036038101906101cb9190611b2d565b610516565b005b6101ec60048036038101906101e79190611b6d565b61052c565b005b61020860048036038101906102039190611b6d565b61062e565b005b610224600480360381019061021f9190611a78565b61064e565b6040516102319190611ae6565b60405180910390f35b610254600480360381019061024f9190611bc0565b610660565b005b610270600480360381019061026b9190611bc0565b61068f565b60405161027d91906118b0565b60405180910390f35b61028e610749565b005b61029861075d565b6040516102a59190611ae6565b60405180910390f35b6102b6610787565b6040516102c39190611a2a565b60405180910390f35b6102e660048036038101906102e19190611c19565b610819565b005b61030260048036038101906102fd9190611d8e565b61082f565b005b61031e60048036038101906103199190611a78565b61084c565b60405161032b9190611a2a565b60405180910390f35b61034e60048036038101906103499190611e11565b6108b5565b60405161035b919061197f565b60405180910390f35b61037e60048036038101906103799190611bc0565b610949565b005b60075481565b60007f80ac58cd000000000000000000000000000000000000000000000000000000007bffffffffffffffffffffffffffffffffffffffffffffffffffffffff1916827bffffffffffffffffffffffffffffffffffffffffffffffffffffffff1916148061045157507f5b5e139f000000000000000000000000000000000000000000000000000000007bffffffffffffffffffffffffffffffffffffffffffffffffffffffff1916827bffffffffffffffffffffffffffffffffffffffffffffffffffffffff1916145b806104615750610460826109cf565b5b9050919050565b60606000805461047790611e80565b80601f01602080910402602001604051908101604052809291908181526020018280546104a390611e80565b80156104f05780601f106104c5576101008083540402835291602001916104f0565b820191906000526020600020905b8154815290600101906020018083116104d357829003601f168201915b5050505050905090565b600061050582610a39565b5061050f82610ac1565b9050919050565b6105288282610523610afe565b610b06565b5050565b600073ffffffffffffffffffffffffffffffffffffffff168273ffffffffffffffffffffffffffffffffffffffff160361059e5760006040517f64a0ae920000000000000000000000000000000000000000000000000000000081526004016105959190611ae6565b60405180910390fd5b60006105b283836105ad610afe565b610b18565b90508373ffffffffffffffffffffffffffffffffffffffff168173ffffffffffffffffffffffffffffffffffffffff1614610628578382826040517f64283d7b00000000000000000000000000000000000000000000000000000000815260040161061f93929190611eb1565b60405180910390fd5b50505050565b6106498383836040518060200160405280600081525061082f565b505050565b600061065982610a39565b9050919050565b610668610d32565b600060076000815461067990611f17565b919050819055905061068b8282610db9565b5050565b60008073ffffffffffffffffffffffffffffffffffffffff168273ffffffffffffffffffffffffffffffffffffffff16036107025760006040517f89c62b640000000000000000000000000000000000000000000000000000000081526004016106f99190611ae6565b60405180910390fd5b600360008373ffffffffffffffffffffffffffffffffffffffff1673ffffffffffffffffffffffffffffffffffffffff168152602001908152602001600020549050919050565b610751610d32565b61075b6000610dd7565b565b6000600660009054906101000a900473ffffffffffffffffffffffffffffffffffffffff16905090565b60606001805461079690611e80565b80601f01602080910402602001604051908101604052809291908181526020018280546107c290611e80565b801561080f5780601f106107e45761010080835404028352916020019161080f565b820191906000526020600020905b8154815290600101906020018083116107f257829003601f168201915b5050505050905090565b61082b610824610afe565b8383610e9d565b5050565b61083a84848461052c565b6108468484848461100c565b50505050565b606061085782610a39565b5060006108626111c3565b9050600081511161088257604051806020016040528060008152506108ad565b8061088c846111da565b60405160200161089d929190611f9b565b6040516020818303038152906040525b915050919050565b6000600560008473ffffffffffffffffffffffffffffffffffffffff1673ffffffffffffffffffffffffffffffffffffffff16815260200190815260200160002060008373ffffffffffffffffffffffffffffffffffffffff1673ffffffffffffffffffffffffffffffffffffffff16815260200190815260200160002060009054906101000a900460ff16905092915050565b610951610d32565b600073ffffffffffffffffffffffffffffffffffffffff168173ffffffffffffffffffffffffffffffffffffffff16036109c35760006040517f1e4fbdf70000000000000000000000000000000000000000000000000000000081526004016109ba9190611ae6565b60405180910390fd5b6109cc81610dd7565b50565b60007f01ffc9a7000000000000000000000000000000000000000000000000000000007bffffffffffffffffffffffffffffffffffffffffffffffffffffffff1916827bffffffffffffffffffffffffffffffffffffffffffffffffffffffff1916149050919050565b600080610a45836112a8565b9050600073ffffffffffffffffffffffffffffffffffffffff168173ffffffffffffffffffffffffffffffffffffffff1603610ab857826040517f7e273289000000000000000000000000000000000000000000000000000000008152600401610aaf91906118b0565b60405180910390fd5b80915050919050565b60006004600083815260200190815260200160002060009054906101000a900473ffffffffffffffffffffffffffffffffffffffff169050919050565b600033905090565b610b1383838360016112e5565b505050565b600080610b24846112a8565b9050600073ffffffffffffffffffffffffffffffffffffffff168373ffffffffffffffffffffffffffffffffffffffff1614610b6657610b658184866114aa565b5b600073ffffffffffffffffffffffffffffffffffffffff168173ffffffffffffffffffffffffffffffffffffffff1614610bf757610ba86000856000806112e5565b6001600360008373ffffffffffffffffffffffffffffffffffffffff1673ffffffffffffffffffffffffffffffffffffffff168152602001908152602001600020600082825403925050819055505b600073ffffffffffffffffffffffffffffffffffffffff168573ffffffffffffffffffffffffffffffffffffffff1614610c7a576001600360008773ffffffffffffffffffffffffffffffffffffffff1673ffffffffffffffffffffffffffffffffffffffff168152602001908152602001600020600082825401925050819055505b846002600086815260200190815260200160002060006101000a81548173ffffffffffffffffffffffffffffffffffffffff021916908373ffffffffffffffffffffffffffffffffffffffff160217905550838573ffffffffffffffffffffffffffffffffffffffff168273ffffffffffffffffffffffffffffffffffffffff167fddf252ad1be2c89b69c2b068fc378daa952ba7f163c4a11628f55a4df523b3ef60405160405180910390a4809150509392505050565b610d3a610afe565b73ffffffffffffffffffffffffffffffffffffffff16610d5861075d565b73ffffffffffffffffffffffffffffffffffffffff1614610db757610d7b610afe565b6040517f118cdaa7000000000000000000000000000000000000000000000000000000008152600401610dae9190611ae6565b60405180910390fd5b565b610dd382826040518060200160405280600081525061156e565b5050565b6000600660009054906101000a900473ffffffffffffffffffffffffffffffffffffffff16905081600660006101000a81548173ffffffffffffffffffffffffffffffffffffffff021916908373ffffffffffffffffffffffffffffffffffffffff1602179055508173ffffffffffffffffffffffffffffffffffffffff168173ffffffffffffffffffffffffffffffffffffffff167f8be0079c531659141344cd1fd0a4f28419497f9722a3daafe3b4186f6b6457e060405160405180910390a35050565b600073ffffffffffffffffffffffffffffffffffffffff168273ffffffffffffffffffffffffffffffffffffffff1603610f0e57816040517f5b08ba18000000000000000000000000000000000000000000000000000000008152600401610f059190611ae6565b60405180910390fd5b80600560008573ffffffffffffffffffffffffffffffffffffffff1673ffffffffffffffffffffffffffffffffffffffff16815260200190815260200160002060008473ffffffffffffffffffffffffffffffffffffffff1673ffffffffffffffffffffffffffffffffffffffff16815260200190815260200160002060006101000a81548160ff0219169083151502179055508173ffffffffffffffffffffffffffffffffffffffff168373ffffffffffffffffffffffffffffffffffffffff167f17307eab39ab6107e8899845ad3d59bd9653f200f220920489ca2b5937696c3183604051610fff919061197f565b60405180910390a3505050565b60008373ffffffffffffffffffffffffffffffffffffffff163b11156111bd578273ffffffffffffffffffffffffffffffffffffffff1663150b7a02611050610afe565b8685856040518563ffffffff1660e01b81526004016110729493929190612014565b6020604051808303816000875af19250505080156110ae57506040513d601f19601f820116820180604052508101906110ab9190612075565b60015b611132573d80600081146110de576040519150601f19603f3d011682016040523d82523d6000602084013e6110e3565b606091505b50600081510361112a57836040517f64a0ae920000000000000000000000000000000000000000000000000000000081526004016111219190611ae6565b60405180910390fd5b805181602001fd5b63150b7a0260e01b7bffffffffffffffffffffffffffffffffffffffffffffffffffffffff1916817bffffffffffffffffffffffffffffffffffffffffffffffffffffffff1916146111bb57836040517f64a0ae920000000000000000000000000000000000000000000000000000000081526004016111b29190611ae6565b60405180910390fd5b505b50505050565b606060405180602001604052806000815250905090565b6060600060016111e98461158a565b01905060008167ffffffffffffffff81111561120857611207611c63565b5b6040519080825280601f01601f19166020018201604052801561123a5781602001600182028036833780820191505090505b509050600082602001820190505b60011561129d578080600190039150507f3031323334353637383961626364656600000000000000000000000000000000600a86061a8153600a8581611291576112906120a2565b5b04945060008503611248575b819350505050919050565b60006002600083815260200190815260200160002060009054906101000a900473ffffffffffffffffffffffffffffffffffffffff169050919050565b808061131e5750600073ffffffffffffffffffffffffffffffffffffffff168273ffffffffffffffffffffffffffffffffffffffff1614155b1561145257600061132e84610a39565b9050600073ffffffffffffffffffffffffffffffffffffffff168373ffffffffffffffffffffffffffffffffffffffff161415801561139957508273ffffffffffffffffffffffffffffffffffffffff168173ffffffffffffffffffffffffffffffffffffffff1614155b80156113ac57506113aa81846108b5565b155b156113ee57826040517fa9fbf51f0000000000000000000000000000000000000000000000000000000081526004016113e59190611ae6565b60405180910390fd5b811561145057838573ffffffffffffffffffffffffffffffffffffffff168273ffffffffffffffffffffffffffffffffffffffff167f8c5be1e5ebec7d5bd14f71427d1e84f3dd0314c0f7b2291e5b200ac8c7c3b92560405160405180910390a45b505b836004600085815260200190815260200160002060006101000a81548173ffffffffffffffffffffffffffffffffffffffff021916908373ffffffffffffffffffffffffffffffffffffffff16021790555050505050565b6114b58383836116dd565b61156957600073ffffffffffffffffffffffffffffffffffffffff168373ffffffffffffffffffffffffffffffffffffffff160361152a57806040517f7e27328900000000000000000000000000000000000000000000000000000000815260040161152191906118b0565b60405180910390fd5b81816040517f177e802f0000000000000000000000000000000000000000000000000000000081526004016115609291906120d1565b60405180910390fd5b505050565b611578838361179e565b611585600084848461100c565b505050565b600080600090507a184f03e93ff9f4daa797ed6e38ed64bf6a1f01000000000000000083106115e8577a184f03e93ff9f4daa797ed6e38ed64bf6a1f01000000000000000083816115de576115dd6120a2565b5b0492506040810190505b6d04ee2d6d415b85acef81000000008310611625576d04ee2d6d415b85acef8100000000838161161b5761161a6120a2565b5b0492506020810190505b662386f26fc10000831061165457662386f26fc10000838161164a576116496120a2565b5b0492506010810190505b6305f5e100831061167d576305f5e1008381611673576116726120a2565b5b0492506008810190505b61271083106116a2576127108381611698576116976120a2565b5b0492506004810190505b606483106116c557606483816116bb576116ba6120a2565b5b0492506002810190505b600a83106116d4576001810190505b80915050919050565b60008073ffffffffffffffffffffffffffffffffffffffff168373ffffffffffffffffffffffffffffffffffffffff161415801561179557508273ffffffffffffffffffffffffffffffffffffffff168473ffffffffffffffffffffffffffffffffffffffff161480611756575061175584846108b5565b5b8061179457508273ffffffffffffffffffffffffffffffffffffffff1661177c83610ac1565b73ffffffffffffffffffffffffffffffffffffffff16145b5b90509392505050565b600073ffffffffffffffffffffffffffffffffffffffff168273ffffffffffffffffffffffffffffffffffffffff16036118105760006040517f64a0ae920000000000000000000000000000000000000000000000000000000081526004016118079190611ae6565b60405180910390fd5b600061181e83836000610b18565b9050600073ffffffffffffffffffffffffffffffffffffffff168173ffffffffffffffffffffffffffffffffffffffff16146118925760006040517f73c6ac6e0000000000000000000000000000000000000000000000000000000081526004016118899190611ae6565b60405180910390fd5b505050565b6000819050919050565b6118aa81611897565b82525050565b60006020820190506118c560008301846118a1565b92915050565b6000604051905090565b600080fd5b600080fd5b60007fffffffff0000000000000000000000000000000000000000000000000000000082169050919050565b611914816118df565b811461191f57600080fd5b50565b6000813590506119318161190b565b92915050565b60006020828403121561194d5761194c6118d5565b5b600061195b84828501611922565b91505092915050565b60008115159050919050565b61197981611964565b82525050565b60006020820190506119946000830184611970565b92915050565b600081519050919050565b600082825260208201905092915050565b60005b838110156119d45780820151818401526020810190506119b9565b60008484015250505050565b6000601f19601f8301169050919050565b60006119fc8261199a565b611a0681856119a5565b9350611a168185602086016119b6565b611a1f816119e0565b840191505092915050565b60006020820190508181036000830152611a4481846119f1565b905092915050565b611a5581611897565b8114611a6057600080fd5b50565b600081359050611a7281611a4c565b92915050565b600060208284031215611a8e57611a8d6118d5565b5b6000611a9c84828501611a63565b91505092915050565b600073ffffffffffffffffffffffffffffffffffffffff82169050919050565b6000611ad082611aa5565b9050919050565b611ae081611ac5565b82525050565b6000602082019050611afb6000830184611ad7565b92915050565b611b0a81611ac5565b8114611b1557600080fd5b50565b600081359050611b2781611b01565b92915050565b60008060408385031215611b4457611b436118d5565b5b6000611b5285828601611b18565b9250506020611b6385828601611a63565b9150509250929050565b600080600060608486031215611b8657611b856118d5565b5b6000611b9486828701611b18565b9350506020611ba586828701611b18565b9250506040611bb686828701611a63565b9150509250925092565b600060208284031215611bd657611bd56118d5565b5b6000611be484828501611b18565b91505092915050565b611bf681611964565b8114611c0157600080fd5b50565b600081359050611c1381611bed565b92915050565b60008060408385031215611c3057611c2f6118d5565b5b6000611c3e85828601611b18565b9250506020611c4f85828601611c04565b9150509250929050565b600080fd5b600080fd5b7f4e487b7100000000000000000000000000000000000000000000000000000000600052604160045260246000fd5b611c9b826119e0565b810181811067ffffffffffffffff82111715611cba57611cb9611c63565b5b80604052505050565b6000611ccd6118cb565b9050611cd98282611c92565b919050565b600067ffffffffffffffff821115611cf957611cf8611c63565b5b611d02826119e0565b9050602081019050919050565b82818337600083830152505050565b6000611d31611d2c84611cde565b611cc3565b905082815260208101848484011115611d4d57611d4c611c5e565b5b611d58848285611d0f565b509392505050565b600082601f830112611d7557611d74611c59565b5b8135611d85848260208601611d1e565b91505092915050565b60008060008060808587031215611da857611da76118d5565b5b6000611db687828801611b18565b9450506020611dc787828801611b18565b9350506040611dd887828801611a63565b925050606085013567ffffffffffffffff811115611df957611df86118da565b5b611e0587828801611d60565b91505092959194509250565b60008060408385031215611e2857611e276118d5565b5b6000611e3685828601611b18565b9250506020611e4785828601611b18565b9150509250929050565b7f4e487b7100000000000000000000000000000000000000000000000000000000600052602260045260246000fd5b60006002820490506001821680611e9857607f821691505b602082108103611eab57611eaa611e51565b5b50919050565b6000606082019050611ec66000830186611ad7565b611ed360208301856118a1565b611ee06040830184611ad7565b949350505050565b7f4e487b7100000000000000000000000000000000000000000000000000000000600052601160045260246000fd5b6000611f2282611897565b91507fffffffffffffffffffffffffffffffffffffffffffffffffffffffffffffffff8203611f5457611f53611ee8565b5b600182019050919050565b600081905092915050565b6000611f758261199a565b611f7f8185611f5f565b9350611f8f8185602086016119b6565b80840191505092915050565b6000611fa78285611f6a565b9150611fb38284611f6a565b91508190509392505050565b600081519050919050565b600082825260208201905092915050565b6000611fe682611fbf565b611ff08185611fca565b93506120008185602086016119b6565b612009816119e0565b840191505092915050565b60006080820190506120296000830187611ad7565b6120366020830186611ad7565b61204360408301856118a1565b81810360608301526120558184611fdb565b905095945050505050565b60008151905061206f8161190b565b92915050565b60006020828403121561208b5761208a6118d5565b5b600061209984828501612060565b91505092915050565b7f4e487b7100000000000000000000000000000000000000000000000000000000600052601260045260246000fd5b60006040820190506120e66000830185611ad7565b6120f360208301846118a1565b939250505056fea26469706673582212201f21fac72a9f2004582c75c6ecc0ad3d42b4c94e9296fa609eb2ce5117805f4464736f6c63430008140033",
  "linkReferences": {},
  "deployedLinkReferences": {}
}